:030000000209767C
:0C097600787FE4F6D8FD75813D0209BDD4
:100AB700010E0001140002150000010817011700BC
:100AC700020A0000011300010900010C00011000D7
:1005E300120B2D120B44120B5B120BD31207EC7B75
:1005F300327A007D3B7C007F171208DA85180D12D2
:1006030000038F18E50D65186053E518B40C0D054C
:100613000EE50E75F0038485F00E8041E518B40DE8
:100623000E0514531401E5146033E4F509802EE537
:1006330018B41013E50EB4020E0508E508C394635D
:10064300401B7508638016E518B41111E50EB4025A
:100653000C1508E508D3940A500375080AE510C37E
:10066300940A4098E4F5101207ECE4FBFA79207839
:100673004112015E1202B38E158F16120B848F1274
:10068300120B988F11120BAC8F0FE5117020E50F31
:10069300701C751701F50AF50BE5146011758010D0
:1006A300E5A0541F44A0F5A053A01F750901E5144C
:1006B30060030205FFE50875F00AA4FFD3E5169F62
:1006C300E5F06480F8E5156480984008758010753E
:1006D30009018005E4F580F509E5A0541F44A0F560
:0706E300A053A01F0205FF58
:030063000203CDC8
:1003CD00C0E0C0F0C083C082C0D075D000C000C0F6
:1003DD0001C002C003C004C005C006C0070510E57A
:1003ED00176032050BE50B7002050AC39488E50A08
:1003FD0094134021750A00750B00751700E5146004
:10040D0014758000E5A0541F44A0F5A053A01F75DE
:10041D000900750C00E509600C050CE50CC394C8CA
:10042D004003750C00E50E6003020512C3E516943A
:10043D0064E51564809480403CAE15AF167C007D5C
:10044D0064120334AA06AB07AE15AF167C007D0A05
:10045D001203347C007D0A120334ED2420F53BE4B5
:10046D003CF53A8A388B3975340075351075360080
:10047D00753710802FC3E51564809480402CAE1520
:10048D00AF167C007D0A120334EF2420F53BE43EC9
:10049D00F53A7534007535107536007537107538A9
:1004AD0000753910AE15AF168047C3E515648094FD
:1004BD008040030205C5C3E49516FFE49515FE7C47
:1004CD00007D0A1203347C007D0A120334ED2420D2
:1004DD00F53BE43CF53A753400753510753600750D
:1004ED003710753800753911C3E49516FFE495156D
:1004FD00FE7C007D0A1203348C3C8D3D7B107A000E
:10050D007D010205BEE50E64017071E51864117080
:10051D002DE51175F00A84753400F535E51175F08A
:10052D000A84AFF07536008F37753800753911E5CF
:10053D000F75F00A84753A00F53BE50F802BE51237
:10054D0075F00A84753400F535E51275F00A84AF3F
:10055D00F07536008F37753800753911E51175F066
:10056D000A84753A00F53BE51175F00A84AFF07514
:10057D003C008F3D7B107A007D028035E50EB40284
:10058D0037753400753510753600753710753800B0
:10059D00753910E50875F00A84753A00F53BE508E4
:1005AD0075F00A84AFF0753C008F3D7B107A007DAD
:1005BD00037C007F191206EA120A36D007D006D046
:1005CD0005D004D003D002D001D000D0D0D082D03D
:0605DD0083D0F0D0E032F3
:100A36007FFF7EFF7DFFE51760011FE51470027ED4
:100A4600FDE5096009E50CD3946450027DFBEF5E79
:0E0A56005DF580E5A0541F4480F5A053A01F5D
:010A6400226F
:100B2D00E5A0541F44A0F5A0E4F580E5A0541F44B2
:070B3D0080F5A07580FF2286
:100A65003F065B4F666D7D077F6F777C395E7971D9
:100A75000040761E7038375C733E783D6750376EA0
:0B0A8500BF86DBCFE6EDFD87FFEF46EC
:030AD70001190002
:100B4400E5A0541F44C0F5A07580FFE5A0541F44E0
:070B5400E0F5A07580FF220F
:1006EA000519531907E5A0541F44C0F5A0E519B42C
:1006FA00080040030207E8900708F8282873020751
:10070A00CC02072002073202074B02076402077E67
:10071A000207980207B2758001E5A0541F44E0F56C
:10072A00A0EF900A650207E4758002E5A0541F4411
:10073A00E0F5A074652DF582740A3CF583E402079E
:10074A00E4758004E5A0541F44E0F5A074652BF518
:10075A0082740A3AF583E40207E4758008E5A05436
:10076A001F44E0F5A074652535F582740A3534F521
:10077A0083E48066758010E5A0541F44E0F5A074F8
:10078A00652537F582740A3536F583E4804C758021
:10079A0020E5A0541F44E0F5A074652539F582745C
:1007AA000A3538F583E48032758040E5A0541F4449
:1007BA00E0F5A07465253BF582740A353AF583E4C1
:1007CA008018758080E5A0541F44E0F5A074652563
:1007DA003DF582740A353CF583E493F4F58053A021
:0107EA001FEF
:0107EB0022EB
:100B5B00438E0475D72075D6D1438E10538EF74331
:050B6B00AF04D2AF222F
:080054007F757EB8DEFEDFFCC3
:01005C002281
:090BD300D2B2D2B3C2B4C2B52201
:10000300E4F52120B222C2B2D2B4D2B520B40B128D
:10001300005420B436752111803120B52E120054BE
:1000230020B52875210D802320B320C2B3D2B4D2CA
:10003300B520B40B12005420B411752110800C208C
:10004300B50912005420B50375210C120BD3AF214F
:01005300228A
:100BC000E4FEC297EF1392A3EFC313FFD2970EBEBA
:020BD00008F02B
:010BD2002200
:100B7000C29300C29700D29300120BC0AF05120BB4
:040B8000C0C293223A
:100A0200E4FDC29300C29700D29300120BC0E4FF30
:100A1200C297EDC313FD30A303430580D2970FBFE6
:100A220008EEC29300C29700D29700C2A300D2A3DD
:030A320000AF050D
:010A3500229E
:1008DA008F218C228D23E52175F00A84C454F0FF00
:1008EA00E52175F00A84EF25F0F521AE22AF237CCD
:1008FA00007D0A120334EFC4F8540FC868F582EE7B
:10090A00C454F048F583AE22AF237C007D0A12035B
:10091A0034ED2582F523EC3583F5227C007D0AAF80
:10092A0003AE02120334EFC4F8540FC868F582EE1E
:10093A00C454F048F5837C007D0AAF03AE0212036B
:10094A0034ED2582FBEC3583FAE4FD7F8E120B70C1
:10095A00AD217F84120B70AD237F82120B70AD0321
:0C096A007F80120B707D807F8E020B706E
:100B84007F85120A02EFC4540F75F00AA4FEEF54D5
:030B94000F2EFF22
:010B9700223B
:100B98007F83120A02EFC4540F75F00AA4FEEF54C3
:030BA8000F2EFF0E
:010BAB002227
:100BAC007F81120A02EFC4540F75F00AA4FEEF54B1
:030BBC000F2EFFFA
:010BBF002213
:040AF9007F057E00F7
:100AFD00EF1FAA0670011E4A600BE4FDEDC3940CB6
:050B0D0050EE0D80F721
:010B120022C0
:020ADB00A90769
:100ADD00E4FBC294E9139294120AF9D294E9C31378
:0C0AED00F90BBB08ED7F057E00020AFD3E
:100B1300E4FBC294ECC313FCD294309403430480EB
:090B2300120AF90BBB08EBAF0448
:010B2C0022A6
:100A9000C200D2947F0C7E00120AFDC2947F507E69
:100AA00000120AFDD2947F0A7E00120AFDA29492DF
:060AB00000120AF9A20089
:010AB600221D
:1007EC00120A907FCC120ADB7F44120ADB7FC87E90
:1007FC0000120AFD120A90C2AF7FCC120ADB7FBE38
:10080C00120ADBD2AFC2AF120B138F2D120B138F48
:10081C002ED2AFE52EC394F0405E632DFF632EFF06
:10082C00E52DB4FF07E4F52D052E8002052DE52EF0
:10083C0075F010A4FFE52DC4540FFDE5F0FCEF4D51
:10084C00FDE412027A8F288E278D268C25E52D54F7
:10085C000FFCE412027FE4FBFA7980783D12015E12
:10086C008F2C8E2B8D2A8C29AB28AA27A926A8255C
:10087C0012006D1202648045E52E75F010A4FFE5A0
:10088C002DC4540FFDE5F0FCEF4DFDE412027A8F00
:10089C00288E278D268C25E52D540FFCE412027F23
:1008AC00E4FBFA7980783D12015E8F2C8E2B8D2A19
:1008BC008C29AB28AA27A926A82512006D8F248E77
:0D08CC00238D228C21AF24AE23AD22AC2160
:0108D90022FC
:1000660002031FE86480F8E933E83360110460F0A6
:10007600ED33EC337009E8FCE9FDEAFEEBFF220400
:1000860060DED3EB9FEA9EE99DE8C2E78CF0C2F7FB
:1000960095F0400CE8CCF8E9CDF9EACEFAEBCFFBC7
:1000A6001202EA85D0F05804700320D5B3E8047034
:1000B600075002B2D502032992D5EC0460F7E4CCCE
:1000C600C0E0C398F8603B94186008400DD0E0FB90
:1000D600020301E4FBFAC9FC8028E830E406E4C91F
:1000E600FBE4CAFCE830E305E4C9CACBFCE85407E4
:1000F6006010F8C3E913F9EA13FAEB13FBEC13FCEF
:10010600D8F130F52FC3E49CFCEF9BFFEE9AFEED91
:1001160099FDD0E0FBEF4E4D4C701222DB0302033B
:1001260026EC2CFCEF33FFEE33FEED33FDED30E72E
:10013600EB020301EF2BFFEE3AFEED39FDD0E0FBBB
:1001460050130BBB0003020329ED13FDEE13FEEF64
:0801560013FFEC13FC0203018E
:10015E00EC4D6011E8497017ED33EC3304600DE49B
:10016E00FCFFFEFD22E933E8330470F802031F1290
:10017E0002EA58046009E4CC248150062850090292
:10018E000329284003020326C0E0EB4A7044B980DD
:10019E0006D0E0FB020315EF4E701CBD8008EBFF8E
:1001AE00EAFEE9FD80EBE98DF0A4FEE5F0020247E0
:1001BE00E9CDF9EAFEEBFFEF89F0A4FCE5F0CE897C
:1001CE00F0A42EFFE435F0CD89F0A42DFEE435F039
:1001DE008067EF4E7005BD80D780C3EF8BF0A4AC67
:1001EE00F0EE8BF0A42CFCE435F0F8EF8AF0A42CA2
:1001FE00E5F038FCE433CB8DF0A42CFCE5F03BF8B5
:10020E00EE8AF0A42CFCE5F038F8E433CF89F0A4A4
:10021E002CFCE5F038CF3400CE89F0A42FFFE5F0AA
:10022E003EFEE433C98DF0A42EFEE5F039CD8AF002
:10023E00A42FFFE5F03EFEE43DFD33D0E0FB50077A
:10024E000BBB000F020329EC2CFCEF33FFEE33FE49
:06025E00ED33FD02030177
:10026400ED33EC33600A047003BD8004ECB2E7FCA8
:010274002267
:1002750075F020800E75F010800575F0087D007E04
:10028500007F003392D530D50312036AEC3340105A
:10029500EF33FFEE33FEED33FDEC33FCD5F0ED220D
:0E02A500E5F0247EA2D513CC92E7CDCEFF2249
:1002B300EDD2E7CD33EC3392D524814006E4FFFE43
:1002C300FDFC22FCE4CFCECDCC24E0501174FF80A2
:1002D300EDC3CC13CCCD13CDCE13CECF13CF04703F
:0702E300F030D5DE02036AD2
:1002EA00E9D2E7C933E833F892D5EDD2E7CD33EC5A
:0702FA0033FC5002B2D522D3
:10030100EC30E7100FBF000C0EBE00080DBD00045D
:100311000BEB6014A2D5EB13FCED92E7FD2274FF09
:10032100FCFDFEFF22E480F8A2D574FF13FC7D8062
:03033100E480EF76
:100982000205E3E493A3F8E493A34003F68001F2A3
:1009920008DFF48029E493A3F85407240CC8C33376
:1009A200C4540F4420C8834004F456800146F6DF45
:1009B200E4800B0102040810204080900AB7E47E14
:1009C200019360BCA3FF543F30E509541FFEE4933A
:1009D200A360010ECF54C025E060A840B8E493A301
:1009E200FAE493A3F8E493A3C8C582C8CAC583CA2C
:1009F200F0A3C8C582C8CAC583CADFE9DEE780BEE4
:010ADA00001B
:10033400C2D5EC30E709B2D5E4C39DFDE49CFCEEE4
:1003440030E715B2D5E4C39FFFE49EFE120378C3E1
:10035400E49DFDE49CFC800312037830D507C3E4DC
:060364009FFFE49EFE2253
:0E036A00C3E49FFFE49EFEE49DFDE49CFC22A4
:10037800BC000BBE0029EF8DF084FFADF022E4CC69
:10038800F875F008EF2FFFEE33FEEC33FCEE9DEC32
:10039800984005FCEE9DFE0FD5F0E9E4CEFD22ED78
:1003A800F8F5F0EE8420D21CFEADF075F008EF2FC2
:1003B800FFED33FD4007985006D5F0F222C398FDB3
:0503C8000FD5F0EA2250
:00000001FF
