:03000000020CAC43
:0C0CAC00787FE4F6D8FD75812F020CF370
:100E5D00012B00042300000000012E0002280000D9
:0E0E6D00022C000001270002210000012A00D3
:100A8400120EB7120ECE120F12120F27E4FF120D20
:100A94007C8F2E1209188F2FE52FB40C22E4F52A2F
:100AA400052BE52B75F0038485F02BE52B64027090
:100AB40076E52EFD3395E0FCE4FF120E398068E5FF
:100AC4002FB40D13E4F52AE52B6402705AF526F5CC
:100AD40025F524F5238050E52FB4101AE52BB40135
:100AE40015E4F52A7405252EF52ED3648094B240BE
:100AF40036E4F52E8031E52FB4111AE52BB4011537
:100B0400E4F52A74FB252EF52EC3648094805017D7
:100B1400752E328012E52FD39400400B052AE52A66
:100B240094034003752A03E527C3941E5003020A65
:100B340097E4F52785282C85292D7F03120DB2AC67
:100B440007E41206E87BFB7AFA79FA783F1205D8B3
:100B540012071C8E288F29D3E52D9529E52C95287D
:100B64005003020A97AF2EEF3395E0FE7C007D0A16
:100B74001207BFD3E52D9FE52C9E5003020A97E58B
:100B8400299FE5289E4003020A97E4FAF9F8E5262E
:100B94002401F526EA3525F525E93524F524E8353B
:060BA40023F523020A976D
:0300630002006632
:10006600C0E0C0F0C083C082C0D075D000C000C060
:1000760001C002C003C004C005C006C0070527AF03
:100086002EEF3395E0FE7C007D0A1207BFC3E529FB
:100096009FE5289E50180522E522700205219488C6
:1000A600E5219413400E752113752289800675216A
:1000B60000752200E52B14606114700302016724A9
:1000C6000260030205BAAE28AF297C007D641207E0
:1000D600D1EF2420FBE43EFAAE28AF297C007D0A4E
:1000E6001207D17C007D0A1207D18C148D158A1255
:1000F6008B13750E00750F10751000751110AE2854
:10010600AF297C007D0A1207D18C168D177B107AD9
:10011600007D107C007F190205B7750E00750F1063
:10012600751000751110E52E75F00A12079DFF3344
:1001360095E0FEEF2420F513E43EF512E52E75F06A
:100146000A12079DAFF0EF3395E0F5148F1575167B
:10015600007517007B107A007D107C007F18020561
:10016600B77F407E427D0F7C00AB26AA25A924A836
:1001760023C3120834500302026B7B407A42790F84
:100186007800AF26AE25AD24AC23120D38AD07ACF2
:1001960006C004C0057BA07A8679017800AF26AE3A
:1001A60025AD24AC23120D38E47B0AFAF9F8120DBA
:1001B60038C002C003E47B107A27F9F8AF26AE25D3
:1001C600AD24AC23120D38E47B0AFAF9F8120D3887
:1001D600AE02AF038E0E8F0FE47BE87A03F9F8AF19
:1001E60026AE25AD24AC23120D38E47B0AFAF9F8C5
:1001F600120D38AE02AF038E108F11E47B64FAF94C
:10020600F8AF26AE25AD24AC23120D38E47B0AFAEE
:10021600F9F8120D38AE02AF038E128F13E47B0A83
:10022600FAF9F8AF26AE25AD24AC23120D38E47BDF
:100236000AFAF9F8120D38AE02AF038E148F15E4E0
:100246007B0AFAF9F8AF26AE25AD24AC23120D3899
:10025600AE02AF038E168F17D003D002D005D0049E
:100266007F160205B77FA07E867D017C00AB26AA9D
:1002760025A924A823C3120834500302034F7BA0E8
:100286007A8679017800AF26AE25AD24AC23120D0F
:1002960038AB07AA06C002C003E47B107A27F9F838
:1002A600AF26AE25AD24AC23120D38E47B0AFAF94D
:1002B600F8120D38AE02AF038E0E8F0FE47BE87A8C
:1002C60003F9F8AF26AE25AD24AC23120D38E47B36
:1002D6000AFAF9F8120D38AE02AF038E108F11E448
:1002E6007B64FAF9F8AF26AE25AD24AC23120D389F
:1002F600E47B0AFAF9F8120D38AE02AF038E128FBC
:1003060013E47B0AFAF9F8AF26AE25AD24AC231226
:100316000D38E47B0AFAF9F8120D38AE02AF038EF7
:10032600148F15E47B0AFAF9F8AF26AE25AD24AC96
:1003360023120D38AE02AF038E168F17D003D002EC
:100346007D107C007F160205B7E47F107E27FDFC3A
:10035600AB26AA25A924A823C312083450030204F5
:100366000AE47B107A27F9F8AF26AE25AD24AC2334
:10037600120D388E0E8F0FE47BE87A03F9F8AF265C
:10038600AE25AD24AC23120D38E47B0AFAF9F81237
:100396000D38AE02AF038E108F11E47B64FAF9F8C4
:1003A600AF26AE25AD24AC23120D38E47B0AFAF94C
:1003B600F8120D38AE02AF038E128F13E47B0AFAE1
:1003C600F9F8AF26AE25AD24AC23120D38E47B0A2E
:1003D600FAF9F8120D38AE02AF038E148F15E47BCE
:1003E6000AFAF9F8AF26AE25AD24AC23120D38AEC5
:1003F60002AF038E168F177B107A007D107C007F6C
:10040600160205B7E47FE87E03FDFCAB26AA25A904
:1004160024A823C312083450030204A8750E0075DD
:100426000F10E47BE87A03F9F8AF26AE25AD24ACCD
:1004360023120D388E108F11E47B64FAF9F8AF267B
:10044600AE25AD24AC23120D38E47B0AFAF9F81276
:100456000D38AE02AF038E128F13E47B0AFAF9F859
:10046600AF26AE25AD24AC23120D38E47B0AFAF98B
:10047600F8120D38AE02AF038E148F15E47B0AFA1C
:10048600F9F8AF26AE25AD24AC23120D38AE02AF77
:10049600038E168F177B107A007D107C007F160264
:1004A60005B7E47F64FEFDFCAB26AA25A924A82394
:1004B600C31208344069750E00750F10751000756B
:1004C6001110E47B64FAF9F8AF26AE25AD24AC230F
:1004D600120D388E128F13E47B0AFAF9F8AF26AEA6
:1004E60025AD24AC23120D38E47B0AFAF9F8120D77
:1004F60038AE02AF038E148F15E47B0AFAF9F8AF13
:1005060026AE25AD24AC23120D38AE02AF038E16EF
:100516008F177B107A007D107C007F160205B7E4EA
:100526007F0AFEFDFCAB26AA25A924A823C3120830
:1005360034404C750E00750F10751000751110754E
:100546001200751310E47B0AFAF9F8AF26AE25AD52
:1005560024AC23120D388E148F15E47B0AFAF9F8B1
:10056600AF26AE25AD24AC23120D38AE02AF038EF6
:10057600168F177B107A007D107C007F168032AFB5
:1005860026AE25AD24AC23EC334029750E00750F3D
:100596001075100075111075120075131075140082
:1005A6007515108E168F177B107A007D107C007FD4
:1005B60016120BAA120003D007D006D005D004D01D
:1005C60003D002D001D000D0D0D082D083D0F0D0DA
:0205D600E03211
:100003007509FF750AFF750BFFD3E5229488E52177
:10001300941340037509FEE47B02FAF9F8AF26AEA8
:1000230025AD24AC23120D38AC00AD01AE02AF03F5
:10003300EC4D4E4F6003750AFDE52AC3940340035C
:10004300750BFBE509550A550BF580E5A0541F44D4
:0600530080F5A053A01F80
:010059002284
:100EB700E5A0541F44A0F5A0E4F580E5A0541F4425
:070EC70080F5A07580FF22F9
:100E0E003F065B4F666D7D077F6F777C395E79712C
:100E1E000040761E7038375C733E783D6750376EF3
:0B0E2E00BF86DBCFE6EDFD87FFEF463F
:030E7B000118005B
:100ECE00E5A0541F44C0F5A07580FFE5A0541F4453
:070EDE00E0F5A07580FF2282
:100BAA000518531807E5A0541F44C0F5A0E518B46A
:100BBA0008004003020CA8900BC8F8282873020CFE
:100BCA008C020BE0020BF2020C0B020C24020C3E0C
:100BDA00020C58020C72758001E5A0541F44E0F51E
:100BEA00A0EF900E0E020CA4758002E5A0541F44DB
:100BFA00E0F5A0740E2DF582740E3CF583E4020C28
:100C0A00A4758004E5A0541F44E0F5A0740E2BF5EA
:100C1A0082740E3AF583E4020CA4758008E5A054A8
:100C2A001F44E0F5A0740E250FF582740E350EF5FB
:100C3A0083E48066758010E5A0541F44E0F5A07433
:100C4A000E2511F582740E3510F583E4804C7580FB
:100C5A0020E5A0541F44E0F5A0740E2513F5827414
:100C6A000E3512F583E48032758040E5A0541F44A6
:100C7A00E0F5A0740E2515F582740E3514F583E49B
:100C8A008018758080E5A0541F44E0F5A0740E25F5
:100C9A0017F582740E3516F583E493F4F58053A0A4
:010CAA001F2A
:010CAB002226
:100F1200438E0475D72075D6D1438E10538EF74376
:050F2200AF04D2AF2274
:08005A007F757EB8DEFEDFFCBD
:01006200227B
:100F2700D2B0D2B1D2B2D2B3C2B4C2B5C2C2C2C4B5
:010F37002297
:10091800E4F50820B05DC2B0D2B4D2B5D2C2D2C418
:1009280020B41112005A20B40375081330B403021E
:100938000A7E80F820B51112005A20B50375080FF9
:1009480030B503020A7E80F820C21112005A20C274
:100958000375080B30C203020A7E80F830C4030214
:100968000A7E12005A20C40375080730C403020A1D
:100978007E80F820B15DC2B1D2B4D2B5D2C2D2C4A1
:1009880020B41112005A20B40375081230B40302BF
:100998000A7E80F820B51112005A20B50375080E9A
:1009A80030B503020A7E80F820C21112005A20C214
:1009B8000375080A30C203020A7E80F830C40302B5
:1009C8000A7E12005A20C40375080630C403020ABE
:1009D8007E80F820B251C2B2D2B4D2B5D2C2D2C44B
:1009E80020B41112005A20B40375081130B4030260
:1009F8000A7E80F820B50E12005A20B50375080D3E
:100A080020B57380FB20C20E12005A20C20375085D
:100A18000920C26280FB20C45D12005A20C40375FD
:100A2800080520C45180FB20B34CC2B3D2B4D2B560
:100A3800D2C2D2C420B40E12005A20B403750810D2
:100A480020B43380FB20B50E12005A20B503750878
:100A58000C20B52280FB20C20E12005A20C203755A
:100A6800080820C21180FB20C40C12005A20C403BD
:0B0A780075080430C4FD120F27AF0802
:010A83002250
:040F4700D2A07F05B0
:080F4B0000AE071FEE70F92251
:0F0F3800D2A1120F47C2A17F05120F4BC2A022F8
:0C0F5300C2A1120F47D2A17F05020F4B74
:100EE500C2A0A20092A17F05120F4B120F47C2A00C
:070EF500D2A17F05020F4BA3
:0A0E9C00AB07120F387F90120DE231
:100EA600120F47A2A19200C2A07F05120F4BA2000B
:010EB6002219
:020DE200AD075B
:100DE400E4FCC2A07F05120F4BED30E704D2A180D2
:100DF40002C2A17F05120F4BD2A0ED25E0FD7F05B5
:090E0400120F4B0CBC08DBC2A06C
:010E0D0022C2
:100E7F00E4FC120F47ED25E0FD30A103430501C24D
:0C0E8F00A07F05120F4B0CBC08E8AF055B
:010E9B002234
:100EFC00120E9C7F40120DE2120EA6AF03120DE2F1
:060F0C00120EA6020F53B5
:100DB200120E9CAF03120DE2120EA6120F53120F67
:100DC20038C2AF7F91120DE2120EA6120E7FAD074E
:0F0DD200D2AFD200120EE5120EA6120F53AF05CC
:010DE10022EF
:100E3900AB05AA04A907120F387FA0120DE2120E02
:100E4900A6AF01120DE2120EA6AF03120DE2120EA9
:040E5900A6020F538B
:020D7C00AB07C3
:100D7E00120F387FA0120DE2120EA6AF03120DE273
:100D8E00120EA6120F53120F387FA1120DE2120E81
:100D9E00A6120E7FAD07D200120EE5120EA6120F8E
:030DAE0053AF053B
:010DB100221F
:1005D800EC4D6011E8497017ED33EC3304600DE41D
:1005E800FCFFFEFD22E933E8330470F802078812A5
:1005F800075358046009E4CC2481500628500902A6
:10060800079228400302078FC0E0EB4A7044B98084
:1006180006D0E0FB02077EEF4E701CBD8008EBFFA2
:10062800EAFEE9FD80EBE98DF0A4FEE5F00206C1E3
:10063800E9CDF9EAFEEBFFEF89F0A4FCE5F0CE89FD
:10064800F0A42EFFE435F0CD89F0A42DFEE435F0BA
:100658008067EF4E7005BD80D780C3EF8BF0A4ACE8
:10066800F0EE8BF0A42CFCE435F0F8EF8AF0A42C23
:10067800E5F038FCE433CB8DF0A42CFCE5F03BF836
:10068800EE8AF0A42CFCE5F038F8E433CF89F0A426
:100698002CFCE5F038CF3400CE89F0A42FFFE5F02C
:1006A8003EFEE433C98DF0A42EFEE5F039CD8AF084
:1006B800A42FFFE5F03EFEE43DFD33D0E0FB5007FC
:1006C8000BBB000F020792EC2CFCEF33FFEE33FE5E
:0606D800ED33FD02076A8C
:1006DE0075F020800E75F010800575F0087D007E97
:1006EE00007F003392D530D503120826EC3340102C
:1006FE00EF33FFEE33FEED33FDEC33FCD5F0ED22A0
:0E070E00E5F0247EA2D513CC92E7CDCEFF22DB
:10071C00EDD2E7CD33EC3392D524814006E4FFFED5
:10072C00FDFC22FCE4CFCECDCC24E0501174FF8034
:10073C00EDC3CC13CCCD13CDCE13CECF13CF0470D1
:07074C00F030D5DE020826A3
:10075300E9D2E7C933E833F892D5EDD2E7CD33ECEC
:0707630033FC5002B2D52265
:10076A00EC30E7100FBF000C0EBE00080DBD0004F0
:10077A000BEB6014A2D5EB13FCED92E7FD2274FF9C
:10078A00FCFDFEFF22E480F8A2D574FF13FC7D80F5
:03079A00E480EF09
:100CB800020A84E493A3F8E493A34003F68001F2C4
:100CC80008DFF48029E493A3F85407240CC8C3333D
:100CD800C4540F4420C8834004F456800146F6DF0C
:100CE800E4800B0102040810204080900E5DE47E31
:100CF800019360BCA3FF543F30E509541FFEE49301
:100D0800A360010ECF54C025E060A840B8E493A3C7
:100D1800FAE493A3F8E493A3C8C582C8CAC583CAF2
:100D2800F0A3C8C582C8CAC583CADFE9DEE780BEAA
:010E7E000073
:10079D00C2D530F707B2D563F0FF05F030E70CB2E4
:1007AD00D5F4048463F0FF05F080018430D502F4A4
:0207BD00042214
:1007BF00EF8DF0A4A8F0CF8CF0A428CE8DF0A42E4E
:0207CF00FE2208
:1007D100BC000BBE0029EF8DF084FFADF022E4CC0C
:1007E100F875F008EF2FFFEE33FEEC33FCEE9DECD5
:1007F100984005FCEE9DFE0FD5F0E9E4CEFD22ED1B
:10080100F8F5F0EE8420D21CFEADF075F008EF2F64
:10081100FFED33FD4007985006D5F0F222C398FD55
:050821000FD5F0EA22F2
:100D3800C2D5E830E70FB2D5E4C39BFBE49AFAE4E6
:100D480099F9E498F8EC30E717B2D5120D6E12084D
:100D580086E4C39BFBE49AFAE499F9E498F88003E3
:100D680012088630D50DE4C39FFFE49EFEE49DFD86
:040D7800E49CFC22D9
:0E082600C3E49FFFE49EFEE49DFDE49CFC22E3
:10083400EB9FF5F0EA9E42F0E99D42F0EC6480C83B
:0608440064809845F022DB
:10084A0075F008758200EF2FFFEE33FECD33CDCC65
:10085A0033CCC58233C5829BED9AEC99E5829840E8
:10086A000CF582EE9BFEED9AFDEC99FC0FD5F0D6C5
:10087A00E4CEFBE4CDFAE4CCF9A88222B800C1B9EF
:10088A000059BA002DEC8BF084CFCECDFCE5F0CB2D
:10089A00F97818EF2FFFEE33FEED33FDEC33FCEB66
:1008AA0033FB10D703994004EB99FB0FD8E5E4F921
:1008BA00FA227818EF2FFFEE33FEED33FDEC33FC0E
:1008CA00C933C910D7059BE99A4007EC9BFCE99A02
:1008DA00F90FD8E0E4C9FAE4CCFB2275F010EF2F47
:1008EA00FFEE33FEED33FDCC33CCC833C810D70747
:1008FA009BEC9AE899400AED9BFDEC9AFCE899F882
:0E090A000FD5F0DAE4CDFBE4CCFAE4C8F92214
:00000001FF
