:0300000002078371
:0C078300787FE4F6D8FD75813D0207CABE
:10096000011200010F00011100010900020D000039
:0D097000010A00020B000001080001100048
:1006F0001200031209D3120A141209EA1209FF1296
:10070000088F8F12E512B404260509E50975F00378
:100710008485F009E50914600C14600E2402704E03
:10072000750F148049750F1E8044750F46803FE594
:1007300012B40522743C250EF50EE4350DF50DD3EB
:10074000E50E940FE50D648094A74006750D27759E
:100750000E0FD2AB8018E512B40609E4F50DF50EC4
:10076000C2AB800AE512B40705050A530A01E51079
:10077000C39414408AE4F5101206021202B38F08E3
:030780000206FF6F
:03001B000208DAFE
:1008DA00C0E0C0D00511E511C3950F5004D2B48011
:1008EA001EE511C3950F400BE511D394645004C261
:1008FA00B4800CE511C394654005C2B4751100D0EB
:04090A00D0D0E03237
:0300630002080F81
:10080F00C0E0C0F0C083C082C0D075D000C000C0AF
:10081F0001C002C003C004C005C006C0070510D345
:10082F00E50E9400E50D648094804033050CE50CD3
:10083F007002050B94E8E50B94034023750B0075CC
:10084F000C00E50E150E7002150DD3E50E9400E5A4
:10085F000D648094805008750D00750E00C2AB12A8
:10086F0003EF12001ED007D006D005D004D003D05E
:10087F0002D001D000D0D0D082D083D0F0D0E032DF
:1003EF00E50A700302048CC3E5086480948A4028F0
:1003FF00753400753510753600753710E50875F0D2
:10040F000A120334FF3395E0F5388F39E50875F09C
:10041F000A120334AFF0801DC3E508648094804056
:10042F001E75340075351075360075371075380028
:10043F00753910AF08EF3395E0F53A8F3B802EC337
:10044F00E5086480948040030204FF75340075351D
:10045F0010753600753710753800753911AF08EF04
:10046F003395E0FEC3E49FF53BE49EF53A753C00FF
:10047F00753D0C7B117A007D047C00806EAE0DAF54
:10048F000E7C037DE8120356AA06AB07AE0DAF0E26
:10049F007C007D641203567C007D0A1203568C8308
:1004AF008D82AE0DAF0E7C007D0A1203567C007D4F
:1004BF000A1203568C3A8D3B8583388582398A36EA
:1004CF008B37E5092401FDE433FCC004C005753406
:1004DF0000753510AE0DAF0E7C007D0A1203568CE1
:1004EF003C8D3DD005D0047B117A007F11120500A1
:0104FF0022DA
:10001E007FFF7EFF7DFFD3E50E9400E50D64809497
:10002E00804016E50914600B14600C2402700A7FE0
:10003E00FE80067EFD80027DFBEF5E5DF580E5A015
:09004E00541F4480F5A053A01FCB
:010057002286
:04099F007F057E0052
:1009A300EF1FAA0670011E4A600BE4FDEDC3940C11
:0509B30050EE0D80F77D
:0109B800221C
:02098100A907C4
:10098300E4FBC294E913929412099FD294E9C3132E
:0C099300F90BBB08ED7F057E000209A3F4
:1009B900E4FBC294ECC313FCD29430940343048047
:0909C90012099F0BBB08EBAF04FF
:0109D2002202
:10093900C200D2947F0C7E001209A3C2947F507E1C
:10094900001209A3D2947F0A7E001209A3A29492ED
:060959000012099FA2003C
:01095F002275
:10060200120939C2AF7FCC1209817F44120981D20B
:10061200AF7FC87E001209A3120939C2AF7FCC1284
:1006220009817FBE120981D2AF1209B98F2D120939
:10063200B98F2EE52EC394F0405E632DFF632EFF2B
:10064200E52DB4FF07E4F52D052E8002052DE52EDC
:1006520075F010A4FFE52DC4540FFDE5F0FCEF4D3D
:10066200FDE412027A8F288E278D268C25E52D54E3
:100672000FFCE412027FE4FBFA7980783D12015EFE
:100682008F2C8E2B8D2A8C29AB28AA27A926A82548
:1006920012006D1202648045E52E75F010A4FFE58C
:1006A2002DC4540FFDE5F0FCEF4DFDE412027A8FEC
:1006B200288E278D268C25E52D540FFCE412027F0F
:1006C200E4FBFA7980783D12015E8F2C8E2B8D2A05
:1006D2008C29AB28AA27A926A82512006D8F248E63
:0D06E200238D228C21AF24AE23AD22AC214C
:0106EF0022E8
:10000300E5A0541F44A0F5A0E4F580E5A0541F44E7
:0700130080F5A07580FF22BB
:10090E003F065B4F666D7D077F6F777C395E797131
:10091E000040761E7038375C733E783D6750376EF8
:0B092E00BF86DBCFE6EDFD87FFEF4644
:03097D0001130063
:1009D300E5A0541F44C0F5A07580FFE5A0541F4453
:0709E300E0F5A07580FF2282
:100500000513531307E5A0541F44C0F5A0E513B429
:10051000080040030205FE90051EF8282873020516
:10052000E202053602054802056102057A020594D9
:100530000205AE0205C8758001E5A0541F44E0F530
:10054000A0EF90090E0205FA758002E5A0541F4441
:10055000E0F5A0740E2DF58274093CF583E40205E4
:10056000FA758004E5A0541F44E0F5A0740E2BF545
:100570008274093AF583E40205FA758008E5A0540F
:100580001F44E0F5A0740E2535F58274093534F565
:1005900083E48066758010E5A0541F44E0F5A074E4
:1005A0000E2537F58274093536F583E4804C758065
:1005B00020E5A0541F44E0F5A0740E2539F582749F
:1005C000093538F583E48032758040E5A0541F4436
:1005D000E0F5A0740E253BF5827409353AF583E405
:1005E0008018758080E5A0541F44E0F5A0740E25A6
:1005F0003DF5827409353CF583E493F4F58053A00E
:010600001FDA
:0106010022D6
:1009EA00438E0475D72075D6D1438E10538EF743A4
:0509FA00AF04D2AF22A2
:080058007F757EB8DEFEDFFCBF
:01006000227D
:090A1400D2B0D2B1D2B2D2B322A9
:10088F00E4F52120B00E12005820B0037521072087
:10089F00B03380FB20B10E12005820B10375210632
:1008AF0020B12280FB20B20E12005820B203752116
:1008BF000520B21180FB20B30C12005820B3037532
:0A08CF00210430B3FD120A14AF211A
:0108D90022FC
:1009FF00438E4053890F758B88758DFFC28FD28EB2
:050A0F00D2ABD2AF22C2
:1000660002031FE86480F8E933E83360110460F0A6
:10007600ED33EC337009E8FCE9FDEAFEEBFF220400
:1000860060DED3EB9FEA9EE99DE8C2E78CF0C2F7FB
:1000960095F0400CE8CCF8E9CDF9EACEFAEBCFFBC7
:1000A6001202EA85D0F05804700320D5B3E8047034
:1000B600075002B2D502032992D5EC0460F7E4CCCE
:1000C600C0E0C398F8603B94186008400DD0E0FB90
:1000D600020301E4FBFAC9FC8028E830E406E4C91F
:1000E600FBE4CAFCE830E305E4C9CACBFCE85407E4
:1000F6006010F8C3E913F9EA13FAEB13FBEC13FCEF
:10010600D8F130F52FC3E49CFCEF9BFFEE9AFEED91
:1001160099FDD0E0FBEF4E4D4C701222DB0302033B
:1001260026EC2CFCEF33FFEE33FEED33FDED30E72E
:10013600EB020301EF2BFFEE3AFEED39FDD0E0FBBB
:1001460050130BBB0003020329ED13FDEE13FEEF64
:0801560013FFEC13FC0203018E
:10015E00EC4D6011E8497017ED33EC3304600DE49B
:10016E00FCFFFEFD22E933E8330470F802031F1290
:10017E0002EA58046009E4CC248150062850090292
:10018E000329284003020326C0E0EB4A7044B980DD
:10019E0006D0E0FB020315EF4E701CBD8008EBFF8E
:1001AE00EAFEE9FD80EBE98DF0A4FEE5F0020247E0
:1001BE00E9CDF9EAFEEBFFEF89F0A4FCE5F0CE897C
:1001CE00F0A42EFFE435F0CD89F0A42DFEE435F039
:1001DE008067EF4E7005BD80D780C3EF8BF0A4AC67
:1001EE00F0EE8BF0A42CFCE435F0F8EF8AF0A42CA2
:1001FE00E5F038FCE433CB8DF0A42CFCE5F03BF8B5
:10020E00EE8AF0A42CFCE5F038F8E433CF89F0A4A4
:10021E002CFCE5F038CF3400CE89F0A42FFFE5F0AA
:10022E003EFEE433C98DF0A42EFEE5F039CD8AF002
:10023E00A42FFFE5F03EFEE43DFD33D0E0FB50077A
:10024E000BBB000F020329EC2CFCEF33FFEE33FE49
:06025E00ED33FD02030177
:10026400ED33EC33600A047003BD8004ECB2E7FCA8
:010274002267
:1002750075F020800E75F010800575F0087D007E04
:10028500007F003392D530D50312038CEC33401038
:10029500EF33FFEE33FEED33FDEC33FCD5F0ED220D
:0E02A500E5F0247EA2D513CC92E7CDCEFF2249
:1002B300EDD2E7CD33EC3392D524814006E4FFFE43
:1002C300FDFC22FCE4CFCECDCC24E0501174FF80A2
:1002D300EDC3CC13CCCD13CDCE13CECF13CF04703F
:0702E300F030D5DE02038CB0
:1002EA00E9D2E7C933E833F892D5EDD2E7CD33EC5A
:0702FA0033FC5002B2D522D3
:10030100EC30E7100FBF000C0EBE00080DBD00045D
:100311000BEB6014A2D5EB13FCED92E7FD2274FF09
:10032100FCFDFEFF22E480F8A2D574FF13FC7D8062
:03033100E480EF76
:10078F000206F0E493A3F8E493A34003F68001F28A
:10079F0008DFF48029E493A3F85407240CC8C3336B
:1007AF00C4540F4420C8834004F456800146F6DF3A
:1007BF00E4800B0102040810204080900960E47E61
:1007CF00019360BCA3FF543F30E509541FFEE4932F
:1007DF00A360010ECF54C025E060A840B8E493A3F6
:1007EF00FAE493A3F8E493A3C8C582C8CAC583CA21
:1007FF00F0A3C8C582C8CAC583CADFE9DEE780BED9
:010980000076
:10033400C2D530F707B2D563F0FF05F030E70CB251
:10034400D5F4048463F0FF05F080018430D502F411
:02035400042281
:10035600C2D5EC30E709B2D5E4C39DFDE49CFCEEC2
:1003660030E715B2D5E4C39FFFE49EFE12039AC39D
:10037600E49DFDE49CFC800312039A30D507C3E498
:060386009FFFE49EFE2231
:0E038C00C3E49FFFE49EFEE49DFDE49CFC2282
:10039A00BC000BBE0029EF8DF084FFADF022E4CC47
:1003AA00F875F008EF2FFFEE33FEEC33FCEE9DEC10
:1003BA00984005FCEE9DFE0FD5F0E9E4CEFD22ED56
:1003CA00F8F5F0EE8420D21CFEADF075F008EF2FA0
:1003DA00FFED33FD4007985006D5F0F222C398FD91
:0503EA000FD5F0EA222E
:00000001FF
