:03000000020A1BD6
:0C0A1B00787FE4F6D8FD75813D020A6288
:100C4F00011200010800010900010F00010C190138
:020C5F000B0088
:1006D700120C0A120C21120C7B120CB11209318573
:1006E70012081200038F12E50865126050E512B474
:1006F700040D0509E50975F0038485F009803EE5D9
:1007070012B40507050F530F018032E512B408151F
:10071700E509B40110150CC3E50C64809477501DEE
:10072700750CF78018E512B40913E509B4010E0535
:100737000CD3E50C648094E34003750C63E50BC3AD
:1007470094144017E4F50B120931E4FBFA79C878E1
:100757004212015E1203538E108F11E50F700302D0
:1007670007FDC3E51194D0E5109407500E7F3312AF
:100777000C65750D00750E640206E6C3E51194D08D
:10078700E51094074054D3E51194A0E510940F5059
:1007970049AC10AD11E412031A7B9A7A997919784A
:1007A7003E12015EE4FBFA794878C312006D12032A
:1007B700538E0D8F0EAC0DAD0EE412031AE4FBFA47
:1007C70079C87842120267E4FBFA794C7842120141
:1007D7005E120353120C650206E6D3E51194A0E5F9
:1007E70010940F50030206E67FCC120C65750D01BD
:1007F700750E900206E6AF0CEF3395E0FE7C007DA8
:10080700641203F6C3E5119FE5109E500DE4FF1235
:100817000C65E4F50DF50E0206E67FFF120C657513
:080827000D01750EF40206E656
:0300630002046B29
:10046B00C0E0C0F0C083C082C0D075D000C000C057
:10047B0001C002C003C004C005C006C007050BE5E0
:10048B00091470030205A3147003020665240260AD
:10049B00030206B9C3E51194E8E51094034053AE8B
:1004AB0010AF117C037DE8120408AA06AB07AE104F
:1004BB00AF117C007D641204087C007D0A120408D5
:1004CB00ED2420F582E43CF583AE10AF117C007D6A
:1004DB000A1204087C007D0A1204088C3A8D3B85B5
:1004EB0083388582398A368B37753400753510021F
:1004FB000587C3E5109400403AAE10AF117C007D28
:10050B0064120408EF2420FBE43EFAAE10AF117C1A
:10051B00007D0A1204087C007D0A1204088C3A8DB7
:10052B003B8A388B39753400753510753600753745
:10053B00108049C3E510940040030206B9AE10AF1A
:10054B00117C007D641204087C007D0A120408ED06
:10055B002420FBE43CFAAE10AF117C007D0A1204A0
:10056B00087C007D0A1204088C3A8D3B8A388B3943
:10057B00753400753510753600753711AE10AF1127
:10058B007C007D0A1204088C3C8D3D7B107A007D2B
:10059B00107C007F0C0206B6C3E50C6480948A4085
:1005AB004175340075351075360075371075380088
:1005BB00753910E50C75F00A1203D4FF3395E0F58D
:1005CB003A8F3BE50C75F00A1203D4AFF0EF33957D
:1005DB00E0F53C8F3D7B107A007D107C007F18028C
:1005EB0006B6C3E50C64809480402F7534007535D6
:1005FB0010753600753710753800753910753A005F
:10060B00753B10AF0CEF3395E0F53C8F3D7B107ACB
:10061B00007D107C007F180206B6C3E50C64809445
:10062B008040030206B975340075351075360075B8
:10063B003710753800753910753A00753B11AF0CD2
:10064B00EF3395E0FEC3E49FF53DE49EF53C7B1054
:10065B007A007D107C007F188051AE0DAF0E7C00B0
:10066B007D64120408EF2420FBE43EFAAE0DAF0EBE
:10067B007C007D0A1204087C007D0A1204088C3A67
:10068B008D3B8A388B39753400753510753600758E
:10069B003710AE0DAF0E7C007D0A1204088C3C8D1A
:1006AB003D7B107A007D107C007F0A12082F120A06
:1006BB00A7D007D006D005D004D003D002D001D0EC
:0C06CB0000D0D0D082D083D0F0D0E0323C
:100AA7007FFF7EFFE50F70011FE50914600B1460DF
:100AB7000C2402700A7EFD80067EFB80027EF7EF23
:0E0AC7005EF580E5A0541F4480F5A053A01FEB
:010AD50022FE
:100C0A00E5A0541F44A0F5A0E4F580E5A0541F44D4
:070C1A0080F5A07580FF22A8
:100B2E003F065B4F666D7D077F6F777C395E79710F
:100B3E000040761E7038375C733E783D6750376ED6
:0B0B4E00BF86DBCFE6EDFD87FFEF4622
:030C61000113007C
:100C2100E5A0541F44C0F5A07580FFE5A0541F4402
:070C3100E0F5A07580FF2231
:10082F000513531307E5A0541F44C0F5A0E513B4F7
:10083F000800400302092D90084DF828287302097B
:10084F00110208650208770208900208A90208C37E
:10085F000208DD0208F7758001E5A0541F44E0F59A
:10086F00A0EF900B2E020929758002E5A0541F44BA
:10087F00E0F5A0742E2DF582740B3CF583E402098C
:10088F0029758004E5A0541F44E0F5A0742E2BF5C4
:10089F0082740B3AF583E4020929758008E5A054A8
:1008AF001F44E0F5A0742E2535F582740B3534F511
:1008BF0083E48066758010E5A0541F44E0F5A074B2
:1008CF002E2537F582740B3536F583E4804C758011
:1008DF0020E5A0541F44E0F5A0742E2539F582744D
:1008EF000B3538F583E48032758040E5A0541F4402
:1008FF00E0F5A0742E253BF582740B353AF583E4B1
:10090F008018758080E5A0541F44E0F5A0742E2553
:10091F003DF582740B353CF583E493F4F58053A0D9
:01092F001FA8
:0109300022A4
:100C7B00438E0475D72075D6D1438E10538EF74310
:050C8B00AF04D2AF220E
:080CA8007F757EB8DEFEDFFC63
:010CB0002221
:090CB100D2B2D2B3C2C2C2C42205
:10000300E4F52120B222C2B2D2C2D2C420C20B1262
:100013000CA820C236752109803120C42E120CA8E9
:1000230020C428752105802320B320C2B3D2C2D2B5
:10003300C420C20B120CA820C211752108800C2009
:10004300C409120CA820C403752104120CB1AF21FA
:01005300228A
:040C9000D2A07F056A
:080C940000AE071FEE70F9220B
:0F005400D2A1120C90C2A17F05120C94C2A0225F
:0C0C9C00C2A1120C90D2A17F05020C94A2
:100C3800C2A0A20092A17F05120C94120C90C2A02F
:070C4800D2A17F05020C940C
:0A0BBB00AB071200547F90120AD617
:100BC500120C90A2A19201C2A07F05120C94A20161
:010BD50022FD
:020AD600AD076A
:100AD800E4FCC2A07F05120C94ED30E704D2A1809B
:100AE80002C2A17F05120C94D2A0ED25E0FD7F057E
:090AF800120C940CBC08DBC2A036
:010B010022D1
:100B9E00E4FC120C90ED25E0FD30A103430501C2EB
:0C0BAE00A07F05120C940CBC08E8AF05F9
:010BBA002218
:100C6500120BBB7F40120AD6120BC5AF03120AD670
:060C7500120BC5020C9CED
:100B0200120BBBAF03120AD6120BC5120C9C1200B9
:100B1200547F91120AD6120BC5120B9EAD07D2005A
:0B0B2200120C38120BC5120C9CAF0522
:010B2D0022A5
:040BD6007F057E0019
:100BDA00EF1FAA0670011E4A600BE4FDEDC3940CD8
:050BEA0050EE0D80F744
:010BEF0022E3
:020B8000A907C3
:100B8200E4FBC294E9139294120BD6D294E9C313F4
:0C0B9200F90BBB08ED7F057E00020BDABA
:100BF000E4FBC294ECC313FCD2943094034304800E
:090C0000120BD60BBB08EBAF048C
:010C090022C8
:100B5900C201D2947F0C7E00120BDAC2947F507EC0
:100B690000120BDAD2947F0A7E00120BDAA2949259
:060B790001120BD6A201DF
:010B7F002253
:10093100120B597FCC120B807F44120B807FC87E33
:1009410000120BDA120B597FCC120B807FBE120BF7
:1009510080C2AF120BF08F2D120BF08F2ED2AFE5AC
:100961002EC394F0405E632DFF632EFFE52DB4FF8F
:1009710007E4F52D052E8002052DE52E75F010A456
:10098100FFE52DC4540FFDE5F0FCEF4DFDE412032E
:100991001A8F288E278D268C25E52D540FFCE41205
:1009A100031FE4FBFA7980783D12015E8F2C8E2BB8
:1009B1008D2A8C29AB28AA27A926A82512006D12F9
:1009C10003048045E52E75F010A4FFE52DC4540FF6
:1009D100FDE5F0FCEF4DFDE412031A8F288E278D03
:1009E100268C25E52D540FFCE412031FE4FBFA7954
:1009F10080783D12015E8F2C8E2B8D2A8C29AB289D
:100A0100AA27A926A82512006D8F248E238D228C5A
:090A110021AF24AE23AD22AC217B
:010A1A0022B9
:100066000203BFE86480F8E933E83360110460F006
:10007600ED33EC337009E8FCE9FDEAFEEBFF220400
:1000860060DED3EB9FEA9EE99DE8C2E78CF0C2F7FB
:1000960095F0400CE8CCF8E9CDF9EACEFAEBCFFBC7
:1000A60012038A85D0F05804700320D5B3E8047093
:1000B600075002B2D50203C992D5EC0460F7E4CC2E
:1000C600C0E0C398F8603B94186008400DD0E0FB90
:1000D6000203A1E4FBFAC9FC8028E830E406E4C97F
:1000E600FBE4CAFCE830E305E4C9CACBFCE85407E4
:1000F6006010F8C3E913F9EA13FAEB13FBEC13FCEF
:10010600D8F130F52FC3E49CFCEF9BFFEE9AFEED91
:1001160099FDD0E0FBEF4E4D4C701222DB0302033B
:10012600C6EC2CFCEF33FFEE33FEED33FDED30E78E
:10013600EB0203A1EF2BFFEE3AFEED39FDD0E0FB1B
:1001460050130BBB00030203C9ED13FDEE13FEEFC4
:0801560013FFEC13FC0203A1EE
:10015E00EC4D6011E8497017ED33EC3304600DE49B
:10016E00FCFFFEFD22E933E8330470F80203BF12F0
:10017E00038A58046009E4CC2481500628500902F1
:10018E0003C92840030203C6C0E0EB4A7044B9809D
:10019E0006D0E0FB0203B5EF4E701CBD8008EBFFEE
:1001AE00EAFEE9FD80EBE98DF0A4FEE5F0020247E0
:1001BE00E9CDF9EAFEEBFFEF89F0A4FCE5F0CE897C
:1001CE00F0A42EFFE435F0CD89F0A42DFEE435F039
:1001DE008067EF4E7005BD80D780C3EF8BF0A4AC67
:1001EE00F0EE8BF0A42CFCE435F0F8EF8AF0A42CA2
:1001FE00E5F038FCE433CB8DF0A42CFCE5F03BF8B5
:10020E00EE8AF0A42CFCE5F038F8E433CF89F0A4A4
:10021E002CFCE5F038CF3400CE89F0A42FFFE5F0AA
:10022E003EFEE433C98DF0A42EFEE5F039CD8AF002
:10023E00A42FFFE5F03EFEE43DFD33D0E0FB50077A
:10024E000BBB000F0203C9EC2CFCEF33FFEE33FEA9
:06025E00ED33FD0203A1D7
:100264000203C9EC5D046005E8590470030203BF8E
:1002740012038A580460F6EC4860F2EC7004FDFE48
:10028400FF22C860DB2481C85009C398600250066D
:100294000203C69850CAF582E9294B4A7005AB821D
:1002A4000203B575F0007C1A7880C3EF9BEE9AEDDB
:1002B40099400DC3EF9BFFEE9AFEED99FDE842F0E5
:1002C400DC23ACF0D0E0FFD0E0FED0E0FDAB822038
:1002D400E7101BEB60BAEC2CFCEF33FFEE33FEEDC2
:1002E40033FD0203A1E803F830E705C0F075F00020
:1002F400EF2FFFEE33FEED33FD40B830E7C280AAA6
:10030400ED33EC33600A047003BD8004ECB2E7FC07
:0103140022C6
:1003150075F020800E75F010800575F0087D007E63
:10032500007F003392D530D50312045DEC334010C5
:10033500EF33FFEE33FEED33FDEC33FCD5F0ED226C
:0E034500E5F0247EA2D513CC92E7CDCEFF22A8
:10035300EDD2E7CD33EC3392D524814006E4FFFEA2
:10036300FDFC22FCE4CFCECDCC24E0501174FF8001
:10037300EDC3CC13CCCD13CDCE13CECF13CF04709E
:07038300F030D5DE02045D3D
:10038A00E9D2E7C933E833F892D5EDD2E7CD33ECB9
:07039A0033FC5002B2D52232
:1003A100EC30E7100FBF000C0EBE00080DBD0004BD
:1003B1000BEB6014A2D5EB13FCED92E7FD2274FF69
:1003C100FCFDFEFF22E480F8A2D574FF13FC7D80C2
:0303D100E480EFD6
:100A27000206D7E493A3F8E493A34003F68001F208
:100A370008DFF48029E493A3F85407240CC8C333D0
:100A4700C4540F4420C8834004F456800146F6DF9F
:100A5700E4800B0102040810204080900C4FE47ED4
:100A6700019360BCA3FF543F30E509541FFEE49394
:100A7700A360010ECF54C025E060A840B8E493A35B
:100A8700FAE493A3F8E493A3C8C582C8CAC583CA86
:100A9700F0A3C8C582C8CAC583CADFE9DEE780BE3E
:010C6400008F
:1003D400C2D530F707B2D563F0FF05F030E70CB2B1
:1003E400D5F4048463F0FF05F080018430D502F471
:0203F4000422E1
:1003F600EF8DF0A4A8F0CF8CF0A428CE8DF0A42E1B
:02040600FE22D4
:10040800BC000BBE0029EF8DF084FFADF022E4CCD8
:10041800F875F008EF2FFFEE33FEEC33FCEE9DECA1
:10042800984005FCEE9DFE0FD5F0E9E4CEFD22EDE7
:10043800F8F5F0EE8420D21CFEADF075F008EF2F31
:10044800FFED33FD4007985006D5F0F222C398FD22
:050458000FD5F0EA22BF
:0E045D00C3E49FFFE49EFEE49DFDE49CFC22B0
:00000001FF
