:03000000020D549A
:0C0D5400787FE4F6D8FD75813D020D9B10
:100E8E00011500011400010EFF010BFF0109FF0205
:0A0E9E001100000116000217000009
:10000300E4F52120B00E120FA420B00375210720C0
:10001300B04080FB20B10E120FA420B1037521065E
:1000230020B12F80FB20B20E120FA420B203752142
:100033000520B21E80FB20B319120FA420B3037551
:100043002104E515D394005006E5149400400330D1
:07005300B3FD120FADAF2158
:01005A002283
:1008B600120EFE120F15120FAD120F2C7B327A009C
:1008C6007D3B7C007F17120CB8120BCE1200038FF3
:1008D60019E5196407702BF516E5146003020A90F2
:1008E6000515531503E5156003020A90E50CFD3363
:1008F60095E0FCE50AFB3395E0FAAF0F120CB8025F
:100906000A90E51964067033F516E5156003020AC8
:10091600900514531403E514700C85130E85100B03
:10092600850D09020A90E51464016003020A9085A8
:100936000F13850C10850A0D020A90E519640560EF
:10094600030209F5F516E515D39400404CE5152488
:10095600FE601E14602F24026003020A90050FC376
:10096600E50F648094975003020A90750F17020AE8
:1009760090050CC3E50C648094BB5003020A907585
:100986000C3B020A90050AC3E50A648094BB500337
:10099600020A90750A3B020A90E514D394005003AC
:1009A600020A90E51424FE601E14602F24026003E0
:1009B600020A900513C3E513648094975003020A54
:1009C60090751317020A900510C3E510648094BB56
:1009D6005003020A9075103B020A90050DC3E50DFF
:1009E600648094BB5003020A90750D3B020A90E5A1
:1009F6001964046003020A90F516E515D3940040C5
:100A06003DE51524FE60171460242402707C150F42
:100A1600D3E50F648094805071E4F50F806C150C5B
:100A2600D3E50C648094805061E4F50C805C150A73
:100A3600D3E50A648094805051E4F50A804CE514AD
:100A4600D39400403DE51424FE601714602424026C
:100A560070381513D3E51364809480502DE4F51394
:100A660080281510D3E51064809480501DE4F5109D
:100A76008018150DD3E50D64809480500DE4F50DB6
:100A86008008120BCE12077A8F08E5157013E5144D
:100A9600700F120F558F0F120F698F0C120F7D8F6B
:100AA6000AE50F650E60030208D2E50C650B6003CC
:100AB6000208D2E50A650960030208D2751601F537
:060AC60017F5180208D22A
:0300630002006632
:10006600C0E0C0F0C083C082C0D075D000C000C060
:1000760001C002C003C004C005C006C007E519647C
:1000860004605FE515705BE5147057E50F75F00ABF
:100096001207FBFFE50F75F00A1207FBAEF0EEFD47
:1000A6003395E0FCE50C75F00A1207FBFB3395E08F
:1000B600F5348B35E50C75F00A1207FBAEF0EEFB56
:1000C6003395E0F5368B37753800753911E50A75C5
:1000D600F00A1207FBFB3395E0F53A8B3BE50A0283
:1000E60003BAE515D394005009E5149400500302B1
:1000F60004220512E51270020511C394D0E511948D
:10010600074006751100751200C3E51194005003EF
:100116000201FAD3E51294E8E511940340030201C3
:10012600FAE5159400406CE50F75F00A1207FBFF1F
:10013600E50F75F00A1207FBAEF0EEFD3395E0FC15
:10014600E50C75F00A1207FBFB3395E0F5348B35A9
:10015600E50C75F00A1207FBAEF0EEFB3395E0F501
:10016600368B37753800753911E50A75F00A1207AE
:10017600FBFB3395E0F53A8B3BE50A75F00A12076F
:10018600FBAEF0EEFB3395E0F53C8B3D7B117A0040
:10019600120ACCE514D3940050030204F1E513755A
:1001A600F00A1207FBFFE51375F00A1207FBAEF023
:1001B600EEFD3395E0FCE51075F00A1207FBFB3304
:1001C60095E0F5348B35E51075F00A1207FBAEF0B5
:1001D600EEFB3395E0F5368B37753800753911E54A
:1001E6000D75F00A1207FBFB3395E0F53A8B3BE5FC
:1001F6000D0203BAD3E51294E8E511940350030205
:1002060004F1E51524FE60641470030202C624029C
:10021600600302031BE50C75F00A1207FBFF33951A
:10022600E0F5348F35E50C75F00A1207FBAFF0EFF9
:100236003395E0F5368F37753800753911E50A754F
:10024600F00A1207FBFF3395E0F53A8F3BE50A7596
:10025600F00A1207FBAFF0EF3395E0F53C8F3D7BDC
:10026600117A007D107C007F10020318E50F75F0EF
:100276000A1207FBFFE50F75F00A1207FBAEF0EE58
:10028600FD3395E0FC75340075351075360075370D
:1002960010753800753911E50A75F00A1207FBFB6F
:1002A6003395E0F53A8B3BE50A75F00A1207FBAE8B
:1002B600F0EEFB3395E0F53C8B3D7B117A008052E6
:1002C600E50F75F00A1207FBFFE50F75F00A120736
:1002D600FBAEF0EEFD3395E0FCE50C75F00A120777
:1002E600FBFB3395E0F5348B35E50C75F00A120708
:1002F600FBAEF0EEFB3395E0F5368B3775380075BF
:100306003911753A00753B10753C00753D107B112F
:100316007A00120ACCE51424FE605C147003020312
:10032600CD240260030204F1E51075F00A1207FB02
:10033600FF3395E0F5348F35E51075F00A1207FBAB
:10034600AFF0EF3395E0F5368F3775380075391114
:10035600E50D75F00A1207FBFF3395E0F53A8F3B82
:10036600E50D75F00A1207FBAFF0EF3395E0F53CAB
:100376008F3D7B11020478E51375F00A1207FBFF27
:10038600E51375F00A1207FBAEF0EEFD3395E0FCBF
:10039600753400753510753600753710753800756B
:1003A6003911E50D75F00A1207FBFB3395E0F53AB6
:1003B6008B3BE50D75F00A1207FBAEF0EEFB3395AD
:1003C600E0F53C8B3D804EE51375F00A1207FBFF06
:1003D600E51375F00A1207FBAEF0EEFD3395E0FC6F
:1003E600E51075F00A1207FBFB3395E0F5348B3503
:1003F600E51075F00A1207FBAEF0EEFB3395E0F55B
:10040600368B37753800753911753A00753B10759E
:100416003C00753D107B117A000204EEE519640478
:1004260060030204F1E51560030204F1E5146003BC
:100436000204F1C3E5086480948A4040753400756F
:100446003510753600753710E50875F00A1207FB8A
:10045600FF3395E0F5388F39E50875F00A1207FB8A
:10046600AFF0EF3395E0F53A8F3B753C00753D0CE8
:100476007B107A007D107C007F10806CC3E50864D9
:10048600809480402E7534007535107536007537AA
:1004960010753800753910AF08EF3395E0F53A8FCF
:1004A6003B753C00753D0C7B107A007D107C007F0F
:1004B600108035C3E50864809480502F753400752C
:1004C6003510753600753710753800753911AF0857
:1004D600EF3395E0F53A8F3B753C00753D0C7B108C
:1004E6007A007D107C007F10120ACCE516601A0592
:1004F60018E51870020517C39488E5179413400988
:10050600751700751800751600120E3FD007D00635
:10051600D005D004D003D002D001D000D0D0D082F4
:07052600D083D0F0D0E032D9
:100E3F007BFFAE17AF187C017D9012081DC3ED9498
:100E4F00C8EC9400500280027BFE8B80E5A0541FFB
:070E5F004480F5A053A01F21
:010E66002269
:100EFE00E5A0541F44A0F5A0E4F580E5A0541F44DE
:070F0E0080F5A07580FF22B1
:100E14003F065B4F666D7D077F6F777C395E797126
:100E24000040761E7038375C733E783D6750376EED
:0B0E3400BF86DBCFE6EDFD87FFEF4639
:030EA800011A002C
:100F1500E5A0541F44C0F5A07580FFE5A0541F440B
:070F2500E0F5A07580FF223A
:100ACC00051A531A07E5A0541F44C0F5A0E51AB443
:100ADC0008004003020BCA900AEAF8282873020B9C
:100AEC00AE020B02020B14020B2D020B46020B6022
:100AFC00020B7A020B94758001E5A0541F44E0F5BB
:100B0C00A0EF900E14020BC6758002E5A0541F4492
:100B1C00E0F5A074142DF582740E3CF583E4020B01
:100B2C00C6758004E5A0541F44E0F5A074142BF5A1
:100B3C0082740E3AF583E4020BC6758008E5A05466
:100B4C001F44E0F5A074142535F582740E3534F588
:100B5C0083E48066758010E5A0541F44E0F5A07412
:100B6C00142537F582740E3536F583E4804C758088
:100B7C0020E5A0541F44E0F5A074142539F58274C7
:100B8C000E3538F583E48032758040E5A0541F445F
:100B9C00E0F5A07414253BF582740E353AF583E428
:100BAC008018758080E5A0541F44E0F5A0741425CE
:100BBC003DF582740E353CF583E493F4F58053A037
:010BCC001F09
:010BCD002205
:080FA4007F757EB8DEFEDFFC64
:010FAC002222
:090FAD00D2B0D2B1D2B2D2B3220B
:100F2C00438E0475D72075D6D1438E10538EF7435C
:050F3C00AF04D2AF225A
:100F9100E4FEC297EF1392A3EFC313FFD2970EBEE5
:020FA10008F056
:010FA300222B
:100F4100C29300C29700D29300120F91AF05120F06
:040F510091C2932294
:100DE000E4FDC29300C29700D29300120F91E4FF7A
:100DF000C297EDC313FD30A303430580D2970FBF05
:100E000008EEC29300C29700D29700C2A300D2A3FB
:030E100000AF052B
:010E130022BC
:100CB8008F218C228D23E52175F00A84C454F0FF1E
:100CC800E52175F00A84EF25F0F521AE22AF237CEB
:100CD800007D0A120872EFC4F8540FC868F582EE56
:100CE800C454F048F583AE22AF237C007D0A120875
:100CF80072ED2582F523EC3583F5227C007D0AAF61
:100D080003AE02120872EFC4F8540FC868F582EEF9
:100D1800C454F048F5837C007D0AAF03AE02120884
:100D280072ED2582FBEC3583FAE4FD7F8E120F41CC
:100D3800AD217F84120F41AD237F82120F41AD0395
:0C0D48007F80120F417D807F8E020F41E2
:100F55007F85120DE0EFC4540F75F00AA4FEEF541F
:030F65000F2EFF4D
:010F68002266
:100F69007F83120DE0EFC4540F75F00AA4FEEF540D
:030F79000F2EFF39
:010F7C002252
:100F7D007F81120DE0EFC4540F75F00AA4FEEF54FB
:030F8D000F2EFF25
:010F9000223E
:040ECA007F057E0022
:100ECE00EF1FAA0670011E4A600BE4FDEDC3940CE1
:050EDE0050EE0D80F74D
:010EE30022EC
:020EAC00A90794
:100EAE00E4FBC294E9139294120ECAD294E9C313CE
:0C0EBE00F90BBB08ED7F057E00020ECE94
:100EE400E4FBC294ECC313FCD29430940343048017
:090EF400120ECA0BBB08EBAF049F
:010EFD0022D2
:100E6700C200D2947F0C7E00120ECEC2947F507EB9
:100E770000120ECED2947F0A7E00120ECEA294925A
:060E870000120ECAA200D9
:010E8D002242
:100BCE00120E677FCC120EAC7F44120EAC7FC87E25
:100BDE0000120ECE120E677FCC120EAC7FBE120E1E
:100BEE00ACC2AF120EE48F2D120EE48F2ED2AFE5F3
:100BFE002EC394F0405E632DFF632EFFE52DB4FFF0
:100C0E0007E4F52D052E8002052DE52E75F010A4B6
:100C1E00FFE52DC4540FFDE5F0FCEF4DFDE412078A
:100C2E00418F288E278D268C25E52D540FFCE4123E
:100C3E000746E4FBFA7980783D1206258F2C8E2B21
:100C4E008D2A8C29AB28AA27A926A825120534128D
:100C5E00072B8045E52E75F010A4FFE52DC4540F2B
:100C6E00FDE5F0FCEF4DFDE41207418F288E278D38
:100C7E00268C25E52D540FFCE4120746E4FBFA7989
:100C8E0080783D1206258F2C8E2B8D2A8C29AB2831
:100C9E00AA27A926A8251205348F248E238D228CEF
:090CAE0021AF24AE23AD22AC21DC
:010CB700221A
:10052D000207E6E86480F8E933E83360110460F00F
:10053D00ED33EC337009E8FCE9FDEAFEEBFF220434
:10054D0060DED3EB9FEA9EE99DE8C2E78CF0C2F72F
:10055D0095F0400CE8CCF8E9CDF9EACEFAEBCFFBFB
:10056D001207B185D0F05804700320D5B3E804709C
:10057D00075002B2D50207F092D5EC0460F7E4CC37
:10058D00C0E0C398F8603B94186008400DD0E0FBC4
:10059D000207C8E4FBFAC9FC8028E830E406E4C988
:1005AD00FBE4CAFCE830E305E4C9CACBFCE8540718
:1005BD006010F8C3E913F9EA13FAEB13FBEC13FC23
:1005CD00D8F130F52FC3E49CFCEF9BFFEE9AFEEDC6
:1005DD0099FDD0E0FBEF4E4D4C701222DB0302076C
:1005ED00EDEC2CFCEF33FFEE33FEED33FDED30E79C
:1005FD00EB0207C8EF2BFFEE3AFEED39FDD0E0FB25
:10060D0050130BBB00030207F0ED13FDEE13FEEFCD
:08061D0013FFEC13FC0207C8F7
:10062500EC4D6011E8497017ED33EC3304600DE4CF
:10063500FCFFFEFD22E933E8330470F80207E612F9
:1006450007B158046009E4CC2481500628500902FA
:1006550007F02840030207EDC0E0EB4A7044B9807B
:1006650006D0E0FB0207DCEF4E701CBD8008EBFFF7
:10067500EAFEE9FD80EBE98DF0A4FEE5F002070E48
:10068500E9CDF9EAFEEBFFEF89F0A4FCE5F0CE89B0
:10069500F0A42EFFE435F0CD89F0A42DFEE435F06D
:1006A5008067EF4E7005BD80D780C3EF8BF0A4AC9B
:1006B500F0EE8BF0A42CFCE435F0F8EF8AF0A42CD6
:1006C500E5F038FCE433CB8DF0A42CFCE5F03BF8E9
:1006D500EE8AF0A42CFCE5F038F8E433CF89F0A4D9
:1006E5002CFCE5F038CF3400CE89F0A42FFFE5F0DF
:1006F5003EFEE433C98DF0A42EFEE5F039CD8AF037
:10070500A42FFFE5F03EFEE43DFD33D0E0FB5007AE
:100715000BBB000F0207F0EC2CFCEF33FFEE33FEB2
:06072500ED33FD0207C8E0
:10072B00ED33EC33600A047003BD8004ECB2E7FCDC
:01073B00229B
:10073C0075F020800E75F010800575F0087D007E38
:10074C00007F003392D530D5031208A8EC3340104B
:10075C00EF33FFEE33FEED33FDEC33FCD5F0ED2241
:0E076C00E5F0247EA2D513CC92E7CDCEFF227D
:10077A00EDD2E7CD33EC3392D524814006E4FFFE77
:10078A00FDFC22FCE4CFCECDCC24E0501174FF80D6
:10079A00EDC3CC13CCCD13CDCE13CECF13CF047073
:0707AA00F030D5DE0208A8C3
:1007B100E9D2E7C933E833F892D5EDD2E7CD33EC8E
:0707C10033FC5002B2D52207
:1007C800EC30E7100FBF000C0EBE00080DBD000492
:1007D8000BEB6014A2D5EB13FCED92E7FD2274FF3E
:1007E800FCFDFEFF22E480F8A2D574FF13FC7D8097
:0307F800E480EFAB
:100D60000208B6E493A3F8E493A34003F68001F2EB
:100D700008DFF48029E493A3F85407240CC8C33394
:100D8000C4540F4420C8834004F456800146F6DF63
:100D9000E4800B0102040810204080900E8EE47E57
:100DA000019360BCA3FF543F30E509541FFEE49358
:100DB000A360010ECF54C025E060A840B8E493A31F
:100DC000FAE493A3F8E493A3C8C582C8CAC583CA4A
:100DD000F0A3C8C582C8CAC583CADFE9DEE780BE02
:010EAB000046
:1007FB00C2D530F707B2D563F0FF05F030E70CB286
:10080B00D5F4048463F0FF05F080018430D502F445
:02081B000422B5
:10081D00BC000BBE0029EF8DF084FFADF022E4CCBF
:10082D00F875F008EF2FFFEE33FEEC33FCEE9DEC88
:10083D00984005FCEE9DFE0FD5F0E9E4CEFD22EDCE
:10084D00F8F5F0EE8420D21CFEADF075F008EF2F18
:10085D00FFED33FD4007985006D5F0F222C398FD09
:05086D000FD5F0EA22A6
:10087200C2D5EC30E709B2D5E4C39DFDE49CFCEEA1
:1008820030E715B2D5E4C39FFFE49EFE12081DC3F4
:10089200E49DFDE49CFC800312081D30D507C3E4EF
:0608A2009FFFE49EFE2210
:0E08A800C3E49FFFE49EFEE49DFDE49CFC2261
:00000001FF
