:030000000207BC38
:0C07BC00787FE4F6D8FD75812E0208035A
:100AE90002280000012200012100012701012D0136
:10084800120A8E120AA512004E120B3F120AFD124E
:1008580000038F2EE52EB4040705225322018022BF
:10086800E52EB4050705215321018016E52EB406AF
:10087800070527532701800AE52EB40705052D53E0
:100888002D01E52AC394144022E4F52A7F031209B6
:10089800AB8F25AC25E41204BE7BFB7AFA79FA7893
:1008A8003F1203AE1204F28E2B8F2CE5216007AFA6
:0D08B80025120AD380997F65120AD3809221
:0300630002006632
:10006600C0E0C0F0C083C082C0D075D000C000C060
:1000760001C002C003C004C005C006C007052A05AA
:1000860029E52970020528C394E8E528940340165B
:10009600752800752900AF8CEFAD8AF523EDF524A0
:1000A600758C00758A00E52D7003020365E52270E4
:1000B60003020312AE23AF24E4FCFD7BA07A86790B
:1000C60001F8D31205D6400302015CAE23AF247CAF
:1000D600277D101205737C007D0A120573C005C0CA
:1000E60004AE23AF247C037DE81205737C007D0AF1
:1000F600120573AA04AB05AE23AF247C007D6412FF
:1001060005737C007D0A1205738C838D82AE23AF46
:10011600247C007D0A1205737C007D0A1205738C0F
:10012600148D158583128582138A108B11D00ED0FB
:100136000FAE23AF24E4FCFD7BA07A86F8120931CA
:10014600AB07AA06AE23AF247C007D0A1205738C8A
:10015600168D1702030AC3E5249410E5239427405D
:1001660075AE23AF247C277D10120573C007C00629
:10017600AE23AF247C037DE81205737C007D0A1252
:100186000573AA04AB05AE23AF247C007D6412057B
:10019600737C007D0A1205738C838D82AE23AF2497
:1001A6007C007D0A1205737C007D0A1205738C148F
:1001B6008D158583128582138A108B11D00ED00F70
:1001C600AE23AF247C007D0A1205738C168D177B37
:1001D600107A0002030AC3E52494E8E52394034059
:1001E60061AE23AF247C037DE8120573AA06AB0734
:1001F600AE23AF247C007D641205737C007D0A1259
:1002060005738C838D82AE23AF247C007D0A120594
:10021600737C007D0A1205738C148D1585831285F7
:1002260082138A108B11750E00750F10AE23AF2442
:100236007C007D0A1205738C168D177B107A0002DE
:10024600030AC3E5249464E5239400404AAE23AF31
:10025600247C007D64120573AA06AB07AE23AF2487
:100266007C007D0A1205737C007D0A1205738C14CE
:100276008D158A128B13750E00750F10751000758B
:100286001110AE23AF247C007D0A1205738C168DE7
:10029600177B107A00806DC3E524940AE523940049
:1002A6004036AE23AF247C007D0A1205738E148F70
:1002B60015750E00750F107510007511107512006A
:1002C600751310AE23AF247C007D0A1205738C16BD
:1002D6008D177B107A00802CC3E52394005003020F
:1002E6000390750E00750F107510007511107512BC
:1002F60000751310751400751510852316852417BF
:100306007B107A007D107C007F0F807BAE2BAF2C9C
:100316007C007D64120573EF2420FBE43EFAAE2BCD
:10032600AF2C7C007D0A1205737C007D0A120573D2
:100336008C148D158A128B13750E00750F1075109F
:1003460000751110AE2BAF2C7C007D0A1205738C44
:10035600168D177B107A007D107C007F198028751A
:100366000E00750F107510007511107512007513BB
:10037600107514007515107516007517107B107A18
:10038600007D107C007F101206BA1208C5D007D077
:1003960006D005D004D003D002D001D000D0D0D0F2
:0803A60082D083D0F0D0E032D8
:1008C5007FFF7EFF7DFFE5276051E52260047FFD08
:1008D50080027FFEC3E52C9496E52B9400400BD354
:1008E500E52C94FAE52B9400400BC3E52C945EE5CA
:1008F5002B940140027EFBC3E52494E8E523940391
:10090500400AE5249488E5239413400BC3E5249419
:1009150010E523942740027DF7E521EF5E5DF58024
:0B092500E5A0541F4480F5A053A01F64
:0109300022A4
:100A8E00E5A0541F44A0F5A0E4F580E5A0541F4452
:070A9E0080F5A07580FF2226
:100A07003F065B4F666D7D077F6F777C395E797137
:100A17000040761E7038375C733E783D6750376EFE
:0B0A2700BF86DBCFE6EDFD87FFEF464A
:030AF900011800E1
:100AA500E5A0541F44C0F5A07580FFE5A0541F4480
:070AB500E0F5A07580FF22AF
:1006BA000518531807E5A0541F44C0F5A0E518B45F
:1006CA00080040030207B89006D8F82828730207E2
:1006DA009C0206F002070202071B02073402074EB9
:1006EA00020768020782758001E5A0541F44E0F5FD
:1006FA00A0EF900A070207B4758002E5A0541F44D0
:10070A00E0F5A074072DF582740A3CF583E402072C
:10071A00B4758004E5A0541F44E0F5A074072BF5D6
:10072A0082740A3AF583E40207B4758008E5A05496
:10073A001F44E0F5A07407250FF582740A350EF5FB
:10074A0083E48066758010E5A0541F44E0F5A07428
:10075A00072511F582740A3510F583E4804C7580FB
:10076A0020E5A0541F44E0F5A074072513F5827410
:10077A000A3512F583E48032758040E5A0541F449F
:10078A00E0F5A074072515F582740A3514F583E49B
:10079A008018758080E5A0541F44E0F5A0740725F1
:1007AA0017F582740A3516F583E493F4F58053A09D
:0107BA001F1F
:0107BB00221B
:10004E00438E0475D72075D6D1438E10538EF74349
:05005E00AF04D2AF2247
:080B36007F757EB8DEFEDFFCD6
:010B3E002294
:090B3F00D2B0D2B1D2B2D2B3227D
:10000300E4F50820B00E120B3620B0037508072064
:10001300B03380FB20B10E120B3620B103750806F6
:1000230020B12280FB20B20E120B3620B2037508DA
:100033000520B21180FB20B30C120B3620B30375DD
:0A004300080430B3FD120B3FAF08B4
:01004D002290
:040B1E00D2A07F05DD
:080B220000AE071FEE70F9227E
:0F0B0F00D2A1120B1EC2A17F05120B22C2A0227F
:0C0B2A00C2A1120B1ED2A17F05020B22FB
:100ABC00C2A0A20092A17F05120B22120B1EC2A093
:070ACC00D2A17F05020B22FD
:0A0A7300AB07120B0F7F901209DB96
:100A7D00120B1EA2A19200C2A07F05120B22A20092
:010A8D002246
:0209DB00AD0766
:1009DD00E4FCC2A07F05120B22ED30E704D2A1800A
:1009ED0002C2A17F05120B22D2A0ED25E0FD7F05ED
:0909FD00120B220CBC08DBC2A0A5
:010A060022CD
:100A5600E4FC120B1EED25E0FD30A103430501C2A7
:0C0A6600A07F05120B220CBC08E8AF05B5
:010A72002261
:100AD300120A737F401209DB120A7DAF031209DB8E
:060AE300120A7D020B2A3D
:1009AB00120A73AF031209DB120A7D120B2A120B08
:1009BB000FC2AF7F911209DB120A7D120A56AD07E7
:0F09CB00D2AFD200120ABC120A7D120B2AAF055E
:0109DA0022FA
:100A3200AB05AA04A907120B0F7FA01209DB120A49
:100A42007DAF011209DB120A7DAF031209DB120A24
:040A52007D020B2AEC
:02097500AB07CE
:10097700120B0F7FA01209DB120A7DAF031209DBEE
:10098700120A7D120B2A120B0F7FA11209DB120A22
:100997007D120A56AD07D200120ABC120A7D120B4D
:0309A7002AAF056F
:0109AA00222A
:100AFD00E58954F04405F589E4F58CF58AC2A9D24F
:020B0D008C2238
:1003AE00EC4D6011E8497017ED33EC3304600DE449
:1003BE00FCFFFEFD22E933E8330470F802055E12FD
:1003CE00052958046009E4CC2481500628500902FE
:1003DE000568284003020565C0E0EB4A7044B98009
:1003EE0006D0E0FB020554EF4E701CBD8008EBFFFB
:1003FE00EAFEE9FD80EBE98DF0A4FEE5F00204973C
:10040E00E9CDF9EAFEEBFFEF89F0A4FCE5F0CE8929
:10041E00F0A42EFFE435F0CD89F0A42DFEE435F0E6
:10042E008067EF4E7005BD80D780C3EF8BF0A4AC14
:10043E00F0EE8BF0A42CFCE435F0F8EF8AF0A42C4F
:10044E00E5F038FCE433CB8DF0A42CFCE5F03BF862
:10045E00EE8AF0A42CFCE5F038F8E433CF89F0A452
:10046E002CFCE5F038CF3400CE89F0A42FFFE5F058
:10047E003EFEE433C98DF0A42EFEE5F039CD8AF0B0
:10048E00A42FFFE5F03EFEE43DFD33D0E0FB500728
:10049E000BBB000F020568EC2CFCEF33FFEE33FEB6
:0604AE00ED33FD020540E4
:1004B40075F020800E75F010800575F0087D007EC3
:1004C400007F003392D530D5031205C8EC334010B9
:1004D400EF33FFEE33FEED33FDEC33FCD5F0ED22CC
:0E04E400E5F0247EA2D513CC92E7CDCEFF2208
:1004F200EDD2E7CD33EC3392D524814006E4FFFE02
:10050200FDFC22FCE4CFCECDCC24E0501174FF8060
:10051200EDC3CC13CCCD13CDCE13CECF13CF0470FD
:07052200F030D5DE0205C830
:10052900E9D2E7C933E833F892D5EDD2E7CD33EC18
:0705390033FC5002B2D52291
:10054000EC30E7100FBF000C0EBE00080DBD00041C
:100550000BEB6014A2D5EB13FCED92E7FD2274FFC8
:10056000FCFDFEFF22E480F8A2D574FF13FC7D8021
:03057000E480EF35
:1007C800020848E493A3F8E493A34003F68001F2F7
:1007D80008DFF48029E493A3F85407240CC8C33332
:1007E800C4540F4420C8834004F456800146F6DF01
:1007F800E4800B0102040810204080900AE9E47E9E
:10080800019360BCA3FF543F30E509541FFEE493F5
:10081800A360010ECF54C025E060A840B8E493A3BC
:10082800FAE493A3F8E493A3C8C582C8CAC583CAE7
:10083800F0A3C8C582C8CAC583CADFE9DEE780BE9F
:010AFC0000F9
:10057300BC000BBE0029EF8DF084FFADF022E4CC6C
:10058300F875F008EF2FFFEE33FEEC33FCEE9DEC35
:10059300984005FCEE9DFE0FD5F0E9E4CEFD22ED7B
:1005A300F8F5F0EE8420D21CFEADF075F008EF2FC5
:1005B300FFED33FD4007985006D5F0F222C398FDB6
:0505C3000FD5F0EA2253
:10093100C2D5E830E70FB2D5E4C39BFBE49AFAE4F1
:1009410099F9E498F8EC30E717B2D5120967120665
:1009510028E4C39BFBE49AFAE499F9E498F880034C
:1009610012062830D50DE4C39FFFE49EFEE49DFDF1
:04097100E49CFC22E4
:0E05C800C3E49FFFE49EFEE49DFDE49CFC2244
:1005D600EB9FF5F0EA9E42F0E99D42F0EC6480C89C
:0605E60064809845F0223C
:1005EC0075F008758200EF2FFFEE33FECD33CDCCC6
:1005FC0033CCC58233C5829BED9AEC99E582984049
:10060C000CF582EE9BFEED9AFDEC99FC0FD5F0D625
:10061C00E4CEFBE4CDFAE4CCF9A88222B800C1B94F
:10062C000059BA002DEC8BF084CFCECDFCE5F0CB8D
:10063C00F97818EF2FFFEE33FEED33FDEC33FCEBC6
:10064C0033FB10D703994004EB99FB0FD8E5E4F981
:10065C00FA227818EF2FFFEE33FEED33FDEC33FC6E
:10066C00C933C910D7059BE99A4007EC9BFCE99A62
:10067C00F90FD8E0E4C9FAE4CCFB2275F010EF2FA7
:10068C00FFEE33FEED33FDCC33CCC833C810D707A7
:10069C009BEC9AE899400AED9BFDEC9AFCE899F8E2
:0E06AC000FD5F0DAE4CDFBE4CCFAE4C8F92275
:00000001FF
