:030000000205D125
:0C05D100787FE4F6D8FD75813102061831
:0C084600FEFDFBF7EFDFBF7FE7DBBD7EB0
:10073600011B00011A00011200011501011C010133
:100746000C0002170000020A000001130001160047
:10065D00E4F52220B00E12086A20B003752207209F
:10066D00B03A80FB20B10E12086A20B10375220644
:10067D0020B12980FB20B20E12086A20B203752228
:10068D000520B21880FB20B31312086A20B303753E
:10069D002204E512D39400400330B3FD120873AF6A
:0106AD00222A
:0106AE002229
:1002B0001200031207D812081C1208317F0A12001C
:1002C0001E8F0812086AE508640A60247D0A7C0013
:1002D0007F0A12075A12086A75210B7D047C00AF51
:1002E0002112075A12086A0521E521D3940E40EB2A
:1002F00012086AE4F521E521240BFF12001E740E9A
:100300002521F8A60712086A0521E521D3940340A8
:10031000E512065D8F1DE51DB40713051A531A017A
:10032000E51A6005D2AB0203E0C2AB0203E0E51DB3
:100330006406703B0512E51275F0038485F012E542
:1003400012701D740D251CF8A619851C15E51524C1
:100350000AFFE519FD7C0012075AE4F5130203E0D9
:10036000E5126401707A85151C740D25158055E51C
:100370001D6405702BE512B40112051CE51CC39425
:10038000044003751C04740D251C8038E5126402BA
:10039000704E0519E519C3940C404575190C804041
:1003A000E51D64047037E5127005750C018031E5B8
:1003B00012B40116151CE51CD394015003751C01E1
:1003C000740D251CF8E6F5198016E512B402111516
:1003D00019E519D3940450087519048003E4F50C49
:1003E000E516C394035003020311E4F5167F0312CC
:1003F00006AF8F09E4D395095010E509C3943F5027
:1004000009750D0175140A020311743FD395095043
:1004100010E509C3947E5009750D02751428020376
:1004200011747ED39509500FE50994BD5009750DDF
:1004300003751446020311750D047514640203114B
:0300630002006632
:10006600C0E0C0F0C083C082C0D075D000C000C060
:1000760001C002C003C004C005C006C0070516E5DE
:100086001A606D050BE50B7002050A740D2515F84F
:10009600E675F064A4FFC3E50B9FE50A95F04050B2
:1000A600750A00750B00E515B401090513E513750E
:1000B600F0088021E515B402101513C3E51364801A
:1000C6009480502C7513078027E515B4030F05138C
:1000D600E51375F00412077E85F0138013E515B459
:1000E600040E1513C3E5136480948050037513033F
:1000F6000518E51870020517C39440E517940640E5
:1001060006751700751800E5121460521470030284
:1001160001EE24026003020295E50C6021752800B9
:10012600752910752A00752B10752C00752D107504
:100136002E00752F11753000850D310201E17528ED
:1001460000752910752A00752B10752C00752D1059
:10015600752E00752F10753000753110807DC3E542
:10016600189420E51794035017E519C3940A400321
:10017600020200E519C39400500302029502023EF2
:10018600E519C3940A402C752800752910E51975E0
:10019600F00A84752A00F52BE51975F00A84AFF08C
:1001A600752C008F2D752E00752F0075300075315A
:1001B600008028E519C394005003020295752800B3
:1001C600752910752A00752B10752C0085192D754B
:1001D6002E00752F007530007531007B107A007D7A
:1001E600107C007F10020292C3E5189420E5179454
:1001F600035070E519C3940A4037E51CFD7C007571
:100206002800752910E51975F00A84752A00F52B62
:10021600E51975F00A84AFF0752C008F2D752E0048
:10022600752F007530007531007B117A007F1180C3
:100236005BE519C394004057E51CFD7C007528005A
:10024600752910752A00752B10752C0085192D75CA
:100256002E00752F007530007531007B117A007FF6
:10026600118029E51CFD7C00752800752910752A6A
:1002760000752B10752C00752D10752E00752F101E
:100286007530007531107B117A007F11120440D051
:1002960007D006D005D004D003D002D001D000D0BC
:0A02A600D0D082D083D0F0D0E03237
:03001B0002054299
:10054200C0E0C083C082C0D075D000C006C007E53D
:100552001A606F051BE51BC39514503EE515640137
:100562006005E515B40210AF13EF3395E0FE744653
:100572002FF5827408801AE51564036006E5156498
:10058200047034AF13EF3395E0FE744E2FF582748E
:10059200083EF583E493F580801DE51BC395144066
:1005A20009E51BD394645002800AE51BC39465409D
:1005B20006751B007580FFE5A0541F4480F5A0530B
:0F05C200A01FD007D006D0D0D082D083D0E03297
:10000300E5A0541F44A0F5A0E4F580E5A0541F44E7
:0700130080F5A07580FF22BB
:10070B003F065B4F666D7D077F6F777C395E797136
:10071B000040761E7038375C733E783D6750376EFD
:0B072B00BF86DBCFE6EDFD87FFEF4649
:03075600011E0081
:1007D800E5A0541F44C0F5A07580FFE5A0541F4450
:0707E800E0F5A07580FF227F
:10044000051E531E07E5A0541F44C0F5A0E51EB4C9
:100450000800400302053E90045EF8282873020558
:10046000220204760204880204A10204BA0204D41F
:100470000204EE020508758001E5A0541F44E0F572
:10048000A0EF90070B02053A758002E5A0541F44C7
:10049000E0F5A0740B2DF58274073CF583E40205AA
:1004A0003A758004E5A0541F44E0F5A0740B2BF5C9
:1004B0008274073AF583E402053A758008E5A05492
:1004C0001F44E0F5A0740B2529F58274073528F543
:1004D00083E48066758010E5A0541F44E0F5A074A5
:1004E0000B252BF5827407352AF583E4804C758043
:1004F00020E5A0541F44E0F5A0740B252DF582746F
:1005000007352CF583E48032758040E5A0541F4404
:10051000E0F5A0740B252FF5827407352EF583E4E2
:100520008018758080E5A0541F44E0F5A0740B2569
:1005300031F58274073530F583E493F4F58053A0E8
:010540001F9B
:010541002297
:10081C00438E0475D72075D6D1438E10538EF74373
:05082C00AF04D2AF2271
:08086A007F757EB8DEFEDFFCA5
:010872002263
:09087300D2B0D2B1D2B2D2B3224C
:04085200D2A07F05AC
:0808560000AE071FEE70F9224D
:0F005400D2A1120852C2A17F05120856C2A022E3
:0C085E00C2A1120852D2A17F0502085668
:1007EF00C2A0A20092A17F05120856120852C2A001
:0707FF00D2A17F050208569C
:0A07BD00AB071200547F901206DF14
:1007C700120852A2A19200C2A07F05120856A200E9
:0107D70022FF
:0206DF00AD0765
:1006E100E4FCC2A07F05120856ED30E704D2A180D8
:1006F10002C2A17F05120856D2A0ED25E0FD7F05BB
:090701001208560CBC08DBC2A072
:01070A0022CC
:1007A000E4FC120852ED25E0FD30A103430501C22F
:0C07B000A07F051208560CBC08E8AF053D
:0107BC00221A
:100806001207BD7F401206DF1207C7AF031206DFCD
:060816001207C702085E94
:1006AF001207BDAF031206DF1207C712085E120052
:1006BF0054C2AB7F911206DF1207C71207A0AD0716
:0F06CF00D2ABD2001207EF1207C712085EAF05B9
:0106DE0022F9
:10075A00AB05AA04A9071200547FA01206DF1207EC
:10076A00C7AF011206DF1207C7AF031206DF12076F
:04077A00C702085E4C
:02001E00AB072E
:100020001200547FA01206DF1207C7AF031206DFCB
:100030001207C712085E1200547FA11206DF1207D2
:10004000C71207A0AD07D2001207EF1207C71208A8
:030050005EAF059B
:01005300228A
:10083100438E4053890F758B88758DFFC28FD28E81
:05084100D2AFC2AB22A2
:1005DD000202B0E493A3F8E493A34003F68001F282
:1005ED0008DFF48029E493A3F85407240CC8C3331F
:1005FD00C4540F4420C8834004F456800146F6DFEE
:10060D00E4800B0102040810204080900736E47E40
:10061D00019360BCA3FF543F30E509541FFEE493E2
:10062D00A360010ECF54C025E060A840B8E493A3A9
:10063D00FAE493A3F8E493A3C8C582C8CAC583CAD4
:10064D00F0A3C8C582C8CAC583CADFE9DEE780BE8C
:01075900009F
:10077E00C2D530F707B2D563F0FF05F030E70CB203
:10078E00D5F4048463F0FF05F080018430D502F4C3
:02079E00042233
:00000001FF
